{
  "_format": "hh-sol-artifact-1",
  "contractName": "MinGasPriceVote",
  "sourceName": "contracts/MinGasPriceVote.sol",
  "abi": [
    {
      "inputs": [],
      "name": "executeProposal",
      "outputs": [],
      "stateMutability": "nonpayable",
      "type": "function"
    },
    {
      "inputs": [
        {
          "internalType": "address",
          "name": "validator",
          "type": "address"
        }
      ],
      "name": "getVote",
      "outputs": [
        {
          "internalType": "uint256",
          "name": "",
          "type": "uint256"
        }
      ],
      "stateMutability": "view",
      "type": "function"
    },
    {
      "inputs": [
        {
          "internalType": "uint256",
          "name": "target",
          "type": "uint256"
        }
      ],
      "name": "proposal",
      "outputs": [],
      "stateMutability": "nonpayable",
      "type": "function"
    },
    {
      "inputs": [
        {
          "internalType": "uint256",
          "name": "target",
          "type": "uint256"
        }
      ],
      "name": "vote",
      "outputs": [],
      "stateMutability": "nonpayable",
      "type": "function"
    }
  ],
  "bytecode": "0x608060405234801561001057600080fd5b50610218806100206000396000f3fe608060405234801561001057600080fd5b506004361061004c5760003560e01c80630121b93f1461005157806330326c171461006d578063373058b8146100895780638d337b8114610093575b600080fd5b61006b60048036038101906100669190610125565b6100c3565b005b61008760048036038101906100829190610125565b6100c6565b005b6100916100c9565b005b6100ad60048036038101906100a891906100fc565b6100cb565b6040516100ba919061015d565b60405180910390f35b50565b50565b565b6000919050565b6000813590506100e1816101b4565b92915050565b6000813590506100f6816101cb565b92915050565b60006020828403121561010e57600080fd5b600061011c848285016100d2565b91505092915050565b60006020828403121561013757600080fd5b6000610145848285016100e7565b91505092915050565b610157816101aa565b82525050565b6000602082019050610172600083018461014e565b92915050565b60006101838261018a565b9050919050565b600073ffffffffffffffffffffffffffffffffffffffff82169050919050565b6000819050919050565b6101bd81610178565b81146101c857600080fd5b50565b6101d4816101aa565b81146101df57600080fd5b5056fea26469706673582212203f7ef286a4976c5ab4822a9aed24734d3c243dc4e623055540abc5abf462e25564736f6c63430008040033",
  "linkReferences": {},
  "deployedLinkReferences": {}
}